{
  "_format": "hh-sol-artifact-1",
  "contractName": "Auction",
  "sourceName": "contracts/Auction.sol",
  "abi": [
    {
      "inputs": [
        {
          "internalType": "address",
          "name": "_artTokenAddress",
          "type": "address"
        }
      ],
      "stateMutability": "nonpayable",
      "type": "constructor"
    },
    {
      "anonymous": false,
      "inputs": [
        {
          "indexed": true,
          "internalType": "uint256",
          "name": "auctionId",
          "type": "uint256"
        },
        {
          "indexed": true,
          "internalType": "uint256",
          "name": "tokenId",
          "type": "uint256"
        },
        {
          "indexed": false,
          "internalType": "address",
          "name": "seller",
          "type": "address"
        },
        {
          "indexed": false,
          "internalType": "uint256",
          "name": "startPrice",
          "type": "uint256"
        },
        {
          "indexed": false,
          "internalType": "uint256",
          "name": "endTime",
          "type": "uint256"
        }
      ],
      "name": "AuctionCreated",
      "type": "event"
    },
    {
      "anonymous": false,
      "inputs": [
        {
          "indexed": true,
          "internalType": "uint256",
          "name": "auctionId",
          "type": "uint256"
        },
        {
          "indexed": false,
          "internalType": "address",
          "name": "winner",
          "type": "address"
        },
        {
          "indexed": false,
          "internalType": "uint256",
          "name": "amount",
          "type": "uint256"
        }
      ],
      "name": "AuctionEnded",
      "type": "event"
    },
    {
      "anonymous": false,
      "inputs": [
        {
          "indexed": true,
          "internalType": "uint256",
          "name": "auctionId",
          "type": "uint256"
        },
        {
          "indexed": false,
          "internalType": "address",
          "name": "bidder",
          "type": "address"
        },
        {
          "indexed": false,
          "internalType": "uint256",
          "name": "amount",
          "type": "uint256"
        }
      ],
      "name": "NewBid",
      "type": "event"
    },
    {
      "inputs": [],
      "name": "artToken",
      "outputs": [
        {
          "internalType": "contract ArtToken",
          "name": "",
          "type": "address"
        }
      ],
      "stateMutability": "view",
      "type": "function"
    },
    {
      "inputs": [],
      "name": "auctionCount",
      "outputs": [
        {
          "internalType": "uint256",
          "name": "",
          "type": "uint256"
        }
      ],
      "stateMutability": "view",
      "type": "function"
    },
    {
      "inputs": [
        {
          "internalType": "uint256",
          "name": "",
          "type": "uint256"
        }
      ],
      "name": "auctions",
      "outputs": [
        {
          "internalType": "uint256",
          "name": "tokenId",
          "type": "uint256"
        },
        {
          "internalType": "address payable",
          "name": "seller",
          "type": "address"
        },
        {
          "internalType": "uint256",
          "name": "startTime",
          "type": "uint256"
        },
        {
          "internalType": "uint256",
          "name": "endTime",
          "type": "uint256"
        },
        {
          "internalType": "uint256",
          "name": "startPrice",
          "type": "uint256"
        },
        {
          "internalType": "address",
          "name": "highestBidder",
          "type": "address"
        },
        {
          "internalType": "uint256",
          "name": "highestBid",
          "type": "uint256"
        },
        {
          "internalType": "bool",
          "name": "ended",
          "type": "bool"
        }
      ],
      "stateMutability": "view",
      "type": "function"
    },
    {
      "inputs": [
        {
          "internalType": "uint256",
          "name": "_tokenId",
          "type": "uint256"
        },
        {
          "internalType": "uint256",
          "name": "_startPrice",
          "type": "uint256"
        },
        {
          "internalType": "uint256",
          "name": "_durationInMinutes",
          "type": "uint256"
        }
      ],
      "name": "createAuction",
      "outputs": [],
      "stateMutability": "nonpayable",
      "type": "function"
    },
    {
      "inputs": [
        {
          "internalType": "uint256",
          "name": "_auctionId",
          "type": "uint256"
        }
      ],
      "name": "endAuction",
      "outputs": [],
      "stateMutability": "nonpayable",
      "type": "function"
    },
    {
      "inputs": [],
      "name": "getAuctionCount",
      "outputs": [
        {
          "internalType": "uint256",
          "name": "",
          "type": "uint256"
        }
      ],
      "stateMutability": "view",
      "type": "function"
    },
    {
      "inputs": [
        {
          "internalType": "uint256",
          "name": "_auctionId",
          "type": "uint256"
        }
      ],
      "name": "getAuctionDetails",
      "outputs": [
        {
          "components": [
            {
              "internalType": "uint256",
              "name": "tokenId",
              "type": "uint256"
            },
            {
              "internalType": "address payable",
              "name": "seller",
              "type": "address"
            },
            {
              "internalType": "uint256",
              "name": "startTime",
              "type": "uint256"
            },
            {
              "internalType": "uint256",
              "name": "endTime",
              "type": "uint256"
            },
            {
              "internalType": "uint256",
              "name": "startPrice",
              "type": "uint256"
            },
            {
              "internalType": "address",
              "name": "highestBidder",
              "type": "address"
            },
            {
              "internalType": "uint256",
              "name": "highestBid",
              "type": "uint256"
            },
            {
              "internalType": "bool",
              "name": "ended",
              "type": "bool"
            }
          ],
          "internalType": "struct Auction.AuctionItem",
          "name": "",
          "type": "tuple"
        }
      ],
      "stateMutability": "view",
      "type": "function"
    },
    {
      "inputs": [
        {
          "internalType": "uint256",
          "name": "_auctionId",
          "type": "uint256"
        }
      ],
      "name": "placeBid",
      "outputs": [],
      "stateMutability": "payable",
      "type": "function"
    }
  ],
  "bytecode": "0x608060405234801561001057600080fd5b50604051610ce4380380610ce483398101604081905261002f91610054565b600080546001600160a01b0319166001600160a01b0392909216919091179055610084565b60006020828403121561006657600080fd5b81516001600160a01b038116811461007d57600080fd5b9392505050565b610c51806100936000396000f3fe60806040526004361061007b5760003560e01c8063bd4cc0f51161004e578063bd4cc0f514610199578063c44e6640146101d1578063cda4beef146101e6578063f20e5e351461020657600080fd5b80632ad7157314610080578063571a26a0146100a95780639979ef4514610164578063b9a2de3a14610179575b600080fd5b34801561008c57600080fd5b5061009660025481565b6040519081526020015b60405180910390f35b3480156100b557600080fd5b506101176100c4366004610b47565b6001602081905260009182526040909120805491810154600282015460038301546004840154600585015460068601546007909601546001600160a01b0395861696949593949293909116919060ff1688565b604080519889526001600160a01b0397881660208a01528801959095526060870193909352608086019190915290921660a084015260c0830191909152151560e0820152610100016100a0565b610177610172366004610b47565b610297565b005b34801561018557600080fd5b50610177610194366004610b47565b610496565b3480156101a557600080fd5b506000546101b9906001600160a01b031681565b6040516001600160a01b0390911681526020016100a0565b3480156101dd57600080fd5b50600254610096565b3480156101f257600080fd5b50610177610201366004610b60565b610709565b34801561021257600080fd5b50610226610221366004610b47565b610a6d565b6040516100a0919060006101008201905082518252602083015160018060a01b0380821660208501526040850151604085015260608501516060850152608085015160808501528060a08601511660a0850152505060c083015160c083015260e0830151151560e083015292915050565b6000818152600160205260409020600281015442108015906102bd575080600301544211155b6103035760405162461bcd60e51b815260206004820152601260248201527141756374696f6e206e6f742061637469766560701b60448201526064015b60405180910390fd5b806006015434116103445760405162461bcd60e51b815260206004820152600b60248201526a42696420746f6f206c6f7760a81b60448201526064016102fa565b600781015460ff16156103915760405162461bcd60e51b8152602060048201526015602482015274105d58dd1a5bdb88185b1c9958591e48195b991959605a1b60448201526064016102fa565b60018101546001600160a01b031633036103e15760405162461bcd60e51b815260206004820152601160248201527014d95b1b195c8818d85b9b9bdd08189a59607a1b60448201526064016102fa565b60058101546001600160a01b03161561043657600581015460068201546040516001600160a01b039092169181156108fc0291906000818181858888f19350505050158015610434573d6000803e3d6000fd5b505b6005810180546001600160a01b03191633908117909155346006830181905560408051928352602083019190915283917f558a0d5d5468d74b0db24c74eb348b42271c2ebb4c9e953ced38aaed95fa436191015b60405180910390a25050565b6000818152600160205260409020600381015442116104ef5760405162461bcd60e51b8152602060048201526015602482015274105d58dd1a5bdb881b9bdd081e595d08195b991959605a1b60448201526064016102fa565b600781015460ff161561053c5760405162461bcd60e51b8152602060048201526015602482015274105d58dd1a5bdb88185b1c9958591e48195b991959605a1b60448201526064016102fa565b60078101805460ff1916600117905560058101546001600160a01b03161561065e57600054600582015482546040516323b872dd60e01b81523060048201526001600160a01b03928316602482015260448101919091529116906323b872dd90606401600060405180830381600087803b1580156105b957600080fd5b505af11580156105cd573d6000803e3d6000fd5b505050600182015460068301546040516001600160a01b03909216925080156108fc02916000818181858888f19350505050158015610610573d6000803e3d6000fd5b5060058101546006820154604080516001600160a01b039093168352602083019190915283917fd2aa34a4fdbbc6dff6a3e56f46e0f3ae2a31d7785ff3487aa5c95c642acea501910161048a565b600054600182015482546040516323b872dd60e01b81523060048201526001600160a01b03928316602482015260448101919091529116906323b872dd90606401600060405180830381600087803b1580156106b957600080fd5b505af11580156106cd573d6000803e3d6000fd5b505060408051600080825260208201528593507fd2aa34a4fdbbc6dff6a3e56f46e0f3ae2a31d7785ff3487aa5c95c642acea50192500161048a565b6000546040516331a9108f60e11b81526004810185905233916001600160a01b031690636352211e90602401602060405180830381865afa158015610752573d6000803e3d6000fd5b505050506040513d601f19601f820116820180604052508101906107769190610b8c565b6001600160a01b0316146107cc5760405162461bcd60e51b815260206004820152601a60248201527f4e6f7420746865206f776e6572206f662074686520746f6b656e00000000000060448201526064016102fa565b6000811161081c5760405162461bcd60e51b815260206004820152601960248201527f4475726174696f6e206d75737420626520706f7369746976650000000000000060448201526064016102fa565b6000821161086c5760405162461bcd60e51b815260206004820152601c60248201527f5374617274207072696365206d75737420626520706f7369746976650000000060448201526064016102fa565b60005460405163095ea7b360e01b8152306004820152602481018590526001600160a01b039091169063095ea7b390604401600060405180830381600087803b1580156108b857600080fd5b505af11580156108cc573d6000803e3d6000fd5b50506000546040516323b872dd60e01b8152336004820152306024820152604481018790526001600160a01b0390911692506323b872dd9150606401600060405180830381600087803b15801561092257600080fd5b505af1158015610936573d6000803e3d6000fd5b504292506000915061094b905083603c610bd2565b6109559083610bef565b60028054919250600061096783610c02565b909155505060408051610100810182528681523360208083018281528385018781526060808601888152608087018c8152600060a0890181815260c08a018f815260e08b018381526002805485526001808c52948e90209c518d559851938c0180546001600160a01b03199081166001600160a01b039687161790915597518c8a0155945160038c0155925160048b01555160058a0180549096169116179093559151600687015590516007909501805460ff1916951515959095179094555484519283529082018890529281018490528792917fc01e7da6ec06ecf5e1b887799549c755425a022ab59da72fa2d8c6255c10bc85910160405180910390a35050505050565b610ac96040518061010001604052806000815260200160006001600160a01b0316815260200160008152602001600081526020016000815260200160006001600160a01b03168152602001600081526020016000151581525090565b5060009081526001602081815260409283902083516101008101855281548152928101546001600160a01b0390811692840192909252600281015493830193909352600383015460608301526004830154608083015260058301541660a0820152600682015460c082015260079091015460ff16151560e082015290565b600060208284031215610b5957600080fd5b5035919050565b600080600060608486031215610b7557600080fd5b505081359360208301359350604090920135919050565b600060208284031215610b9e57600080fd5b81516001600160a01b0381168114610bb557600080fd5b9392505050565b634e487b7160e01b600052601160045260246000fd5b8082028115828204841417610be957610be9610bbc565b92915050565b80820180821115610be957610be9610bbc565b600060018201610c1457610c14610bbc565b506001019056fea2646970667358221220a4f122d86a4b1a8d331b776be970a2033f053954adc02ff37dac88bba121db1764736f6c63430008140033",
  "linkReferences": {},
  "deployedLinkReferences": {}
}