{
  "_format": "hh-sol-artifact-1",
  "contractName": "ArtToken",
  "sourceName": "contracts/ArtToken.sol",
  "abi": [
    {
      "inputs": [],
      "stateMutability": "nonpayable",
      "type": "constructor"
    },
    {
      "inputs": [
        {
          "internalType": "address",
          "name": "sender",
          "type": "address"
        },
        {
          "internalType": "uint256",
          "name": "tokenId",
          "type": "uint256"
        },
        {
          "internalType": "address",
          "name": "owner",
          "type": "address"
        }
      ],
      "name": "ERC721IncorrectOwner",
      "type": "error"
    },
    {
      "inputs": [
        {
          "internalType": "address",
          "name": "operator",
          "type": "address"
        },
        {
          "internalType": "uint256",
          "name": "tokenId",
          "type": "uint256"
        }
      ],
      "name": "ERC721InsufficientApproval",
      "type": "error"
    },
    {
      "inputs": [
        {
          "internalType": "address",
          "name": "approver",
          "type": "address"
        }
      ],
      "name": "ERC721InvalidApprover",
      "type": "error"
    },
    {
      "inputs": [
        {
          "internalType": "address",
          "name": "operator",
          "type": "address"
        }
      ],
      "name": "ERC721InvalidOperator",
      "type": "error"
    },
    {
      "inputs": [
        {
          "internalType": "address",
          "name": "owner",
          "type": "address"
        }
      ],
      "name": "ERC721InvalidOwner",
      "type": "error"
    },
    {
      "inputs": [
        {
          "internalType": "address",
          "name": "receiver",
          "type": "address"
        }
      ],
      "name": "ERC721InvalidReceiver",
      "type": "error"
    },
    {
      "inputs": [
        {
          "internalType": "address",
          "name": "sender",
          "type": "address"
        }
      ],
      "name": "ERC721InvalidSender",
      "type": "error"
    },
    {
      "inputs": [
        {
          "internalType": "uint256",
          "name": "tokenId",
          "type": "uint256"
        }
      ],
      "name": "ERC721NonexistentToken",
      "type": "error"
    },
    {
      "inputs": [
        {
          "internalType": "address",
          "name": "owner",
          "type": "address"
        }
      ],
      "name": "OwnableInvalidOwner",
      "type": "error"
    },
    {
      "inputs": [
        {
          "internalType": "address",
          "name": "account",
          "type": "address"
        }
      ],
      "name": "OwnableUnauthorizedAccount",
      "type": "error"
    },
    {
      "anonymous": false,
      "inputs": [
        {
          "indexed": true,
          "internalType": "address",
          "name": "owner",
          "type": "address"
        },
        {
          "indexed": true,
          "internalType": "address",
          "name": "approved",
          "type": "address"
        },
        {
          "indexed": true,
          "internalType": "uint256",
          "name": "tokenId",
          "type": "uint256"
        }
      ],
      "name": "Approval",
      "type": "event"
    },
    {
      "anonymous": false,
      "inputs": [
        {
          "indexed": true,
          "internalType": "address",
          "name": "owner",
          "type": "address"
        },
        {
          "indexed": true,
          "internalType": "address",
          "name": "operator",
          "type": "address"
        },
        {
          "indexed": false,
          "internalType": "bool",
          "name": "approved",
          "type": "bool"
        }
      ],
      "name": "ApprovalForAll",
      "type": "event"
    },
    {
      "anonymous": false,
      "inputs": [
        {
          "indexed": true,
          "internalType": "address",
          "name": "previousOwner",
          "type": "address"
        },
        {
          "indexed": true,
          "internalType": "address",
          "name": "newOwner",
          "type": "address"
        }
      ],
      "name": "OwnershipTransferred",
      "type": "event"
    },
    {
      "anonymous": false,
      "inputs": [
        {
          "indexed": true,
          "internalType": "address",
          "name": "from",
          "type": "address"
        },
        {
          "indexed": true,
          "internalType": "address",
          "name": "to",
          "type": "address"
        },
        {
          "indexed": true,
          "internalType": "uint256",
          "name": "tokenId",
          "type": "uint256"
        }
      ],
      "name": "Transfer",
      "type": "event"
    },
    {
      "inputs": [
        {
          "internalType": "address",
          "name": "to",
          "type": "address"
        },
        {
          "internalType": "uint256",
          "name": "tokenId",
          "type": "uint256"
        }
      ],
      "name": "approve",
      "outputs": [],
      "stateMutability": "nonpayable",
      "type": "function"
    },
    {
      "inputs": [
        {
          "internalType": "address",
          "name": "owner",
          "type": "address"
        }
      ],
      "name": "balanceOf",
      "outputs": [
        {
          "internalType": "uint256",
          "name": "",
          "type": "uint256"
        }
      ],
      "stateMutability": "view",
      "type": "function"
    },
    {
      "inputs": [],
      "name": "currentTokenId",
      "outputs": [
        {
          "internalType": "uint256",
          "name": "",
          "type": "uint256"
        }
      ],
      "stateMutability": "view",
      "type": "function"
    },
    {
      "inputs": [
        {
          "internalType": "uint256",
          "name": "tokenId",
          "type": "uint256"
        }
      ],
      "name": "getApproved",
      "outputs": [
        {
          "internalType": "address",
          "name": "",
          "type": "address"
        }
      ],
      "stateMutability": "view",
      "type": "function"
    },
    {
      "inputs": [
        {
          "internalType": "address",
          "name": "owner",
          "type": "address"
        },
        {
          "internalType": "address",
          "name": "operator",
          "type": "address"
        }
      ],
      "name": "isApprovedForAll",
      "outputs": [
        {
          "internalType": "bool",
          "name": "",
          "type": "bool"
        }
      ],
      "stateMutability": "view",
      "type": "function"
    },
    {
      "inputs": [],
      "name": "name",
      "outputs": [
        {
          "internalType": "string",
          "name": "",
          "type": "string"
        }
      ],
      "stateMutability": "view",
      "type": "function"
    },
    {
      "inputs": [],
      "name": "owner",
      "outputs": [
        {
          "internalType": "address",
          "name": "",
          "type": "address"
        }
      ],
      "stateMutability": "view",
      "type": "function"
    },
    {
      "inputs": [
        {
          "internalType": "uint256",
          "name": "tokenId",
          "type": "uint256"
        }
      ],
      "name": "ownerOf",
      "outputs": [
        {
          "internalType": "address",
          "name": "",
          "type": "address"
        }
      ],
      "stateMutability": "view",
      "type": "function"
    },
    {
      "inputs": [],
      "name": "renounceOwnership",
      "outputs": [],
      "stateMutability": "nonpayable",
      "type": "function"
    },
    {
      "inputs": [
        {
          "internalType": "address",
          "name": "to",
          "type": "address"
        }
      ],
      "name": "safeMint",
      "outputs": [
        {
          "internalType": "uint256",
          "name": "",
          "type": "uint256"
        }
      ],
      "stateMutability": "nonpayable",
      "type": "function"
    },
    {
      "inputs": [
        {
          "internalType": "address",
          "name": "from",
          "type": "address"
        },
        {
          "internalType": "address",
          "name": "to",
          "type": "address"
        },
        {
          "internalType": "uint256",
          "name": "tokenId",
          "type": "uint256"
        }
      ],
      "name": "safeTransferFrom",
      "outputs": [],
      "stateMutability": "nonpayable",
      "type": "function"
    },
    {
      "inputs": [
        {
          "internalType": "address",
          "name": "from",
          "type": "address"
        },
        {
          "internalType": "address",
          "name": "to",
          "type": "address"
        },
        {
          "internalType": "uint256",
          "name": "tokenId",
          "type": "uint256"
        },
        {
          "internalType": "bytes",
          "name": "data",
          "type": "bytes"
        }
      ],
      "name": "safeTransferFrom",
      "outputs": [],
      "stateMutability": "nonpayable",
      "type": "function"
    },
    {
      "inputs": [
        {
          "internalType": "address",
          "name": "operator",
          "type": "address"
        },
        {
          "internalType": "bool",
          "name": "approved",
          "type": "bool"
        }
      ],
      "name": "setApprovalForAll",
      "outputs": [],
      "stateMutability": "nonpayable",
      "type": "function"
    },
    {
      "inputs": [
        {
          "internalType": "bytes4",
          "name": "interfaceId",
          "type": "bytes4"
        }
      ],
      "name": "supportsInterface",
      "outputs": [
        {
          "internalType": "bool",
          "name": "",
          "type": "bool"
        }
      ],
      "stateMutability": "view",
      "type": "function"
    },
    {
      "inputs": [],
      "name": "symbol",
      "outputs": [
        {
          "internalType": "string",
          "name": "",
          "type": "string"
        }
      ],
      "stateMutability": "view",
      "type": "function"
    },
    {
      "inputs": [
        {
          "internalType": "uint256",
          "name": "tokenId",
          "type": "uint256"
        }
      ],
      "name": "tokenURI",
      "outputs": [
        {
          "internalType": "string",
          "name": "",
          "type": "string"
        }
      ],
      "stateMutability": "view",
      "type": "function"
    },
    {
      "inputs": [
        {
          "internalType": "address",
          "name": "from",
          "type": "address"
        },
        {
          "internalType": "address",
          "name": "to",
          "type": "address"
        },
        {
          "internalType": "uint256",
          "name": "tokenId",
          "type": "uint256"
        }
      ],
      "name": "transferFrom",
      "outputs": [],
      "stateMutability": "nonpayable",
      "type": "function"
    },
    {
      "inputs": [
        {
          "internalType": "address",
          "name": "newOwner",
          "type": "address"
        }
      ],
      "name": "transferOwnership",
      "outputs": [],
      "stateMutability": "nonpayable",
      "type": "function"
    }
  ],
  "bytecode": "0x60806040523480156200001157600080fd5b50336040518060400160405280600881526020016720b93a2a37b5b2b760c11b8152506040518060400160405280600381526020016210549560ea1b8152508160009081620000619190620001ab565b506001620000708282620001ab565b5050506001600160a01b038116620000a257604051631e4fbdf760e01b81526000600482015260240160405180910390fd5b620000ad81620000b4565b5062000277565b600680546001600160a01b038381166001600160a01b0319831681179093556040519116919082907f8be0079c531659141344cd1fd0a4f28419497f9722a3daafe3b4186f6b6457e090600090a35050565b634e487b7160e01b600052604160045260246000fd5b600181811c908216806200013157607f821691505b6020821081036200015257634e487b7160e01b600052602260045260246000fd5b50919050565b601f821115620001a657600081815260208120601f850160051c81016020861015620001815750805b601f850160051c820191505b81811015620001a2578281556001016200018d565b5050505b505050565b81516001600160401b03811115620001c757620001c762000106565b620001df81620001d884546200011c565b8462000158565b602080601f831160018114620002175760008415620001fe5750858301515b600019600386901b1c1916600185901b178555620001a2565b600085815260208120601f198616915b82811015620002485788860151825594840194600190910190840162000227565b5085821015620002675787850151600019600388901b60f8161c191681555b5050505050600190811b01905550565b61112380620002876000396000f3fe608060405234801561001057600080fd5b50600436106101155760003560e01c806370a08231116100a2578063a22cb46511610071578063a22cb46514610229578063b88d4fde1461023c578063c87b56dd1461024f578063e985e9c514610262578063f2fde38b1461027557600080fd5b806370a08231146101f5578063715018a6146102085780638da5cb5b1461021057806395d89b411461022157600080fd5b8063095ea7b3116100e9578063095ea7b31461019457806323b872dd146101a957806340d097c3146101bc57806342842e0e146101cf5780636352211e146101e257600080fd5b80629a9b7b1461011a57806301ffc9a71461013157806306fdde0314610154578063081812fc14610169575b600080fd5b6007545b6040519081526020015b60405180910390f35b61014461013f366004610d71565b610288565b6040519015158152602001610128565b61015c6102da565b6040516101289190610dde565b61017c610177366004610df1565b61036c565b6040516001600160a01b039091168152602001610128565b6101a76101a2366004610e21565b610395565b005b6101a76101b7366004610e4b565b6103a4565b61011e6101ca366004610e87565b610434565b6101a76101dd366004610e4b565b610467565b61017c6101f0366004610df1565b610487565b61011e610203366004610e87565b610492565b6101a76104da565b6006546001600160a01b031661017c565b61015c6104ee565b6101a7610237366004610ea2565b6104fd565b6101a761024a366004610ef4565b610508565b61015c61025d366004610df1565b610520565b610144610270366004610fd0565b610595565b6101a7610283366004610e87565b6105c3565b60006001600160e01b031982166380ac58cd60e01b14806102b957506001600160e01b03198216635b5e139f60e01b145b806102d457506301ffc9a760e01b6001600160e01b03198316145b92915050565b6060600080546102e990611003565b80601f016020809104026020016040519081016040528092919081815260200182805461031590611003565b80156103625780601f1061033757610100808354040283529160200191610362565b820191906000526020600020905b81548152906001019060200180831161034557829003601f168201915b5050505050905090565b600061037782610601565b506000828152600460205260409020546001600160a01b03166102d4565b6103a082823361063a565b5050565b6001600160a01b0382166103d357604051633250574960e11b8152600060048201526024015b60405180910390fd5b60006103e0838333610647565b9050836001600160a01b0316816001600160a01b03161461042e576040516364283d7b60e01b81526001600160a01b03808616600483015260248201849052821660448201526064016103ca565b50505050565b600061043e610740565b600780546000918261044f8361103d565b91905055905061045f838261076d565b90505b919050565b61048283838360405180602001604052806000815250610508565b505050565b60006102d482610601565b60006001600160a01b0382166104be576040516322718ad960e21b8152600060048201526024016103ca565b506001600160a01b031660009081526003602052604090205490565b6104e2610740565b6104ec6000610787565b565b6060600180546102e990611003565b6103a03383836107d9565b6105138484846103a4565b61042e3385858585610878565b606061052b82610601565b50600061054360408051602081019091526000815290565b90506000815111610563576040518060200160405280600081525061058e565b8061056d846109a3565b60405160200161057e929190611064565b6040516020818303038152906040525b9392505050565b6001600160a01b03918216600090815260056020908152604080832093909416825291909152205460ff1690565b6105cb610740565b6001600160a01b0381166105f557604051631e4fbdf760e01b8152600060048201526024016103ca565b6105fe81610787565b50565b6000818152600260205260408120546001600160a01b03168061045f57604051637e27328960e01b8152600481018490526024016103ca565b6104828383836001610a36565b6000828152600260205260408120546001600160a01b039081169083161561067457610674818486610b3c565b6001600160a01b038116156106b257610691600085600080610a36565b6001600160a01b038116600090815260036020526040902080546000190190555b6001600160a01b038516156106e1576001600160a01b0385166000908152600360205260409020805460010190555b60008481526002602052604080822080546001600160a01b0319166001600160a01b0389811691821790925591518793918516917fddf252ad1be2c89b69c2b068fc378daa952ba7f163c4a11628f55a4df523b3ef91a4949350505050565b6006546001600160a01b031633146104ec5760405163118cdaa760e01b81523360048201526024016103ca565b6103a0828260405180602001604052806000815250610ba0565b600680546001600160a01b038381166001600160a01b0319831681179093556040519116919082907f8be0079c531659141344cd1fd0a4f28419497f9722a3daafe3b4186f6b6457e090600090a35050565b6001600160a01b03821661080b57604051630b61174360e31b81526001600160a01b03831660048201526024016103ca565b6001600160a01b03838116600081815260056020908152604080832094871680845294825291829020805460ff191686151590811790915591519182527f17307eab39ab6107e8899845ad3d59bd9653f200f220920489ca2b5937696c31910160405180910390a3505050565b6001600160a01b0383163b1561099c57604051630a85bd0160e11b81526001600160a01b0384169063150b7a02906108ba908890889087908790600401611093565b6020604051808303816000875af19250505080156108f5575060408051601f3d908101601f191682019092526108f2918101906110d0565b60015b61095e573d808015610923576040519150601f19603f3d011682016040523d82523d6000602084013e610928565b606091505b50805160000361095657604051633250574960e11b81526001600160a01b03851660048201526024016103ca565b805160208201fd5b6001600160e01b03198116630a85bd0160e11b1461099a57604051633250574960e11b81526001600160a01b03851660048201526024016103ca565b505b5050505050565b606060006109b083610bb8565b600101905060008167ffffffffffffffff8111156109d0576109d0610ede565b6040519080825280601f01601f1916602001820160405280156109fa576020820181803683370190505b5090508181016020015b600019016f181899199a1a9b1b9c1cb0b131b232b360811b600a86061a8153600a8504945084610a0457509392505050565b8080610a4a57506001600160a01b03821615155b15610b0c576000610a5a84610601565b90506001600160a01b03831615801590610a865750826001600160a01b0316816001600160a01b031614155b8015610a995750610a978184610595565b155b15610ac25760405163a9fbf51f60e01b81526001600160a01b03841660048201526024016103ca565b8115610b0a5783856001600160a01b0316826001600160a01b03167f8c5be1e5ebec7d5bd14f71427d1e84f3dd0314c0f7b2291e5b200ac8c7c3b92560405160405180910390a45b505b5050600090815260046020526040902080546001600160a01b0319166001600160a01b0392909216919091179055565b610b47838383610c90565b610482576001600160a01b038316610b7557604051637e27328960e01b8152600481018290526024016103ca565b60405163177e802f60e01b81526001600160a01b0383166004820152602481018290526044016103ca565b610baa8383610cf6565b610482336000858585610878565b60008072184f03e93ff9f4daa797ed6e38ed64bf6a1f0160401b8310610bf75772184f03e93ff9f4daa797ed6e38ed64bf6a1f0160401b830492506040015b6d04ee2d6d415b85acef81000000008310610c23576d04ee2d6d415b85acef8100000000830492506020015b662386f26fc100008310610c4157662386f26fc10000830492506010015b6305f5e1008310610c59576305f5e100830492506008015b6127108310610c6d57612710830492506004015b60648310610c7f576064830492506002015b600a831061045f5760010192915050565b60006001600160a01b03831615801590610cee5750826001600160a01b0316846001600160a01b03161480610cca5750610cca8484610595565b80610cee57506000828152600460205260409020546001600160a01b038481169116145b949350505050565b6001600160a01b038216610d2057604051633250574960e11b8152600060048201526024016103ca565b6000610d2e83836000610647565b90506001600160a01b03811615610482576040516339e3563760e11b8152600060048201526024016103ca565b6001600160e01b0319811681146105fe57600080fd5b600060208284031215610d8357600080fd5b813561058e81610d5b565b60005b83811015610da9578181015183820152602001610d91565b50506000910152565b60008151808452610dca816020860160208601610d8e565b601f01601f19169290920160200192915050565b60208152600061058e6020830184610db2565b600060208284031215610e0357600080fd5b5035919050565b80356001600160a01b038116811461046257600080fd5b60008060408385031215610e3457600080fd5b610e3d83610e0a565b946020939093013593505050565b600080600060608486031215610e6057600080fd5b610e6984610e0a565b9250610e7760208501610e0a565b9150604084013590509250925092565b600060208284031215610e9957600080fd5b61058e82610e0a565b60008060408385031215610eb557600080fd5b610ebe83610e0a565b915060208301358015158114610ed357600080fd5b809150509250929050565b634e487b7160e01b600052604160045260246000fd5b60008060008060808587031215610f0a57600080fd5b610f1385610e0a565b9350610f2160208601610e0a565b925060408501359150606085013567ffffffffffffffff80821115610f4557600080fd5b818701915087601f830112610f5957600080fd5b813581811115610f6b57610f6b610ede565b604051601f8201601f19908116603f01168101908382118183101715610f9357610f93610ede565b816040528281528a6020848701011115610fac57600080fd5b82602086016020830137600060208483010152809550505050505092959194509250565b60008060408385031215610fe357600080fd5b610fec83610e0a565b9150610ffa60208401610e0a565b90509250929050565b600181811c9082168061101757607f821691505b60208210810361103757634e487b7160e01b600052602260045260246000fd5b50919050565b60006001820161105d57634e487b7160e01b600052601160045260246000fd5b5060010190565b60008351611076818460208801610d8e565b83519083019061108a818360208801610d8e565b01949350505050565b6001600160a01b03858116825284166020820152604081018390526080606082018190526000906110c690830184610db2565b9695505050505050565b6000602082840312156110e257600080fd5b815161058e81610d5b56fea2646970667358221220907030b605398f4218c2c4c4a02f7f2d0c35c2525a69ee0b7504e8801fda90d164736f6c63430008140033",
  "linkReferences": {},
  "deployedLinkReferences": {}
}